2024-10-30 13:42:41,800 - DEBUG - (Admin) S >> 8=FIX.4.3|9=55|35=5|34=1|49=SERVER|52=20241030-12:42:41.000|56=CLIENT|10=090|
2024-10-30 13:43:16,464 - DEBUG - (Admin) R << 8=FIX.4.3|9=73|35=A|34=1|49=CLIENT|52=20241030-12:43:16.000|56=SERVER|98=0|108=30|141=Y|10=175|
2024-10-30 13:43:16,464 - DEBUG - (Admin) S >> 8=FIX.4.3|9=73|35=A|34=1|49=SERVER|52=20241030-12:43:16.000|56=CLIENT|98=0|108=30|141=Y|10=175|
2024-10-30 13:43:46,333 - DEBUG - (Admin) S >> 8=FIX.4.3|9=55|35=0|34=2|49=SERVER|52=20241030-12:43:46.000|56=CLIENT|10=092|
2024-10-30 13:43:46,334 - DEBUG - (Admin) R << 8=FIX.4.3|9=55|35=0|34=2|49=CLIENT|52=20241030-12:43:46.000|56=SERVER|10=092|
2024-10-30 13:44:03,141 - DEBUG - (Admin) R << 8=FIX.4.3|9=73|35=A|34=1|49=CLIENT|52=20241030-12:44:03.000|56=SERVER|98=0|108=30|141=Y|10=172|
2024-10-30 13:44:03,142 - DEBUG - (Admin) S >> 8=FIX.4.3|9=73|35=A|34=1|49=SERVER|52=20241030-12:44:03.000|56=CLIENT|98=0|108=30|141=Y|10=172|
2024-10-30 13:44:33,367 - DEBUG - (Admin) R << 8=FIX.4.3|9=55|35=0|34=2|49=CLIENT|52=20241030-12:44:33.000|56=SERVER|10=089|
2024-10-30 13:44:33,367 - DEBUG - (Admin) S >> 8=FIX.4.3|9=55|35=0|34=2|49=SERVER|52=20241030-12:44:33.000|56=CLIENT|10=089|
2024-10-30 13:45:03,005 - DEBUG - (Admin) S >> 8=FIX.4.3|9=55|35=0|34=3|49=SERVER|52=20241030-12:45:03.000|56=CLIENT|10=088|
2024-10-30 13:45:03,007 - DEBUG - (Admin) R << 8=FIX.4.3|9=55|35=0|34=3|49=CLIENT|52=20241030-12:45:03.000|56=SERVER|10=088|
2024-10-30 13:45:18,239 - DEBUG - (Admin) R << 8=FIX.4.3|9=73|35=A|34=1|49=CLIENT|52=20241030-12:45:18.000|56=SERVER|98=0|108=30|141=Y|10=179|
2024-10-30 13:45:18,239 - DEBUG - (Admin) S >> 8=FIX.4.3|9=73|35=A|34=1|49=SERVER|52=20241030-12:45:18.000|56=CLIENT|98=0|108=30|141=Y|10=179|
2024-10-30 13:45:24,287 - DEBUG - (App) R << 8=FIX.4.3|9=151|35=D|34=2|49=CLIENT|52=20241030-12:45:24.000|56=SERVER|11=00001|21=3|38=10000|40=2|44=100|54=1|55=MSFT|58=NewOrderSingle|59=0|60=20241030-13:45:24.286|10=064|
2024-10-30 13:45:48,441 - DEBUG - (Admin) S >> 8=FIX.4.3|9=55|35=0|34=2|49=SERVER|52=20241030-12:45:48.000|56=CLIENT|10=096|
2024-10-30 13:45:54,600 - DEBUG - (Admin) R << 8=FIX.4.3|9=55|35=0|34=3|49=CLIENT|52=20241030-12:45:54.000|56=SERVER|10=094|
2024-10-30 13:46:18,717 - DEBUG - (Admin) S >> 8=FIX.4.3|9=55|35=0|34=3|49=SERVER|52=20241030-12:46:18.000|56=CLIENT|10=095|
2024-10-30 13:46:24,861 - DEBUG - (Admin) R << 8=FIX.4.3|9=55|35=0|34=4|49=CLIENT|52=20241030-12:46:24.000|56=SERVER|10=093|
2024-10-30 13:46:48,010 - DEBUG - (Admin) S >> 8=FIX.4.3|9=55|35=0|34=4|49=SERVER|52=20241030-12:46:48.000|56=CLIENT|10=099|
2024-10-30 13:46:54,147 - DEBUG - (Admin) R << 8=FIX.4.3|9=55|35=0|34=5|49=CLIENT|52=20241030-12:46:54.000|56=SERVER|10=097|
2024-10-30 13:47:18,304 - DEBUG - (Admin) S >> 8=FIX.4.3|9=55|35=0|34=5|49=SERVER|52=20241030-12:47:18.000|56=CLIENT|10=098|
2024-10-30 13:47:24,462 - DEBUG - (Admin) R << 8=FIX.4.3|9=55|35=0|34=6|49=CLIENT|52=20241030-12:47:24.000|56=SERVER|10=096|
2024-10-30 13:47:48,590 - DEBUG - (Admin) S >> 8=FIX.4.3|9=55|35=0|34=6|49=SERVER|52=20241030-12:47:48.000|56=CLIENT|10=102|
2024-10-30 13:47:54,770 - DEBUG - (Admin) R << 8=FIX.4.3|9=55|35=0|34=7|49=CLIENT|52=20241030-12:47:54.000|56=SERVER|10=100|
2024-10-30 13:48:18,872 - DEBUG - (Admin) S >> 8=FIX.4.3|9=55|35=0|34=7|49=SERVER|52=20241030-12:48:18.000|56=CLIENT|10=101|
2024-10-30 13:48:24,052 - DEBUG - (Admin) R << 8=FIX.4.3|9=55|35=0|34=8|49=CLIENT|52=20241030-12:48:24.000|56=SERVER|10=099|
2024-10-30 13:48:48,137 - DEBUG - (Admin) S >> 8=FIX.4.3|9=55|35=0|34=8|49=SERVER|52=20241030-12:48:48.000|56=CLIENT|10=105|
2024-10-30 13:48:54,369 - DEBUG - (Admin) R << 8=FIX.4.3|9=55|35=0|34=9|49=CLIENT|52=20241030-12:48:54.000|56=SERVER|10=103|
2024-10-30 13:49:18,415 - DEBUG - (Admin) S >> 8=FIX.4.3|9=55|35=0|34=9|49=SERVER|52=20241030-12:49:18.000|56=CLIENT|10=104|
2024-10-30 13:49:24,600 - DEBUG - (Admin) R << 8=FIX.4.3|9=56|35=0|34=10|49=CLIENT|52=20241030-12:49:24.000|56=SERVER|10=142|
2024-10-30 13:49:48,703 - DEBUG - (Admin) S >> 8=FIX.4.3|9=56|35=0|34=10|49=SERVER|52=20241030-12:49:48.000|56=CLIENT|10=148|
2024-10-30 13:49:54,917 - DEBUG - (Admin) R << 8=FIX.4.3|9=56|35=0|34=11|49=CLIENT|52=20241030-12:49:54.000|56=SERVER|10=146|
2024-10-30 13:50:19,006 - DEBUG - (Admin) S >> 8=FIX.4.3|9=56|35=0|34=11|49=SERVER|52=20241030-12:50:19.000|56=CLIENT|10=139|
2024-10-30 13:50:24,213 - DEBUG - (Admin) R << 8=FIX.4.3|9=56|35=0|34=12|49=CLIENT|52=20241030-12:50:24.000|56=SERVER|10=136|
2024-10-30 13:50:49,285 - DEBUG - (Admin) S >> 8=FIX.4.3|9=56|35=0|34=12|49=SERVER|52=20241030-12:50:49.000|56=CLIENT|10=143|
2024-10-30 13:50:54,485 - DEBUG - (Admin) R << 8=FIX.4.3|9=56|35=0|34=13|49=CLIENT|52=20241030-12:50:54.000|56=SERVER|10=140|
2024-10-30 13:51:19,496 - DEBUG - (Admin) S >> 8=FIX.4.3|9=56|35=0|34=13|49=SERVER|52=20241030-12:51:19.000|56=CLIENT|10=142|
2024-10-30 13:51:24,694 - DEBUG - (Admin) R << 8=FIX.4.3|9=56|35=0|34=14|49=CLIENT|52=20241030-12:51:24.000|56=SERVER|10=139|
2024-10-30 13:51:49,767 - DEBUG - (Admin) S >> 8=FIX.4.3|9=56|35=0|34=14|49=SERVER|52=20241030-12:51:49.000|56=CLIENT|10=146|
2024-10-30 13:51:54,989 - DEBUG - (Admin) R << 8=FIX.4.3|9=56|35=0|34=15|49=CLIENT|52=20241030-12:51:54.000|56=SERVER|10=143|
2024-10-30 13:52:19,032 - DEBUG - (Admin) S >> 8=FIX.4.3|9=56|35=0|34=15|49=SERVER|52=20241030-12:52:19.000|56=CLIENT|10=145|
2024-10-30 13:52:24,241 - DEBUG - (Admin) R << 8=FIX.4.3|9=56|35=0|34=16|49=CLIENT|52=20241030-12:52:24.000|56=SERVER|10=142|
2024-10-30 13:52:49,289 - DEBUG - (Admin) S >> 8=FIX.4.3|9=56|35=0|34=16|49=SERVER|52=20241030-12:52:49.000|56=CLIENT|10=149|
2024-10-30 13:52:54,505 - DEBUG - (Admin) R << 8=FIX.4.3|9=56|35=0|34=17|49=CLIENT|52=20241030-12:52:54.000|56=SERVER|10=146|
2024-10-30 13:53:19,623 - DEBUG - (Admin) S >> 8=FIX.4.3|9=56|35=0|34=17|49=SERVER|52=20241030-12:53:19.000|56=CLIENT|10=148|
2024-10-30 13:53:24,826 - DEBUG - (Admin) R << 8=FIX.4.3|9=56|35=0|34=18|49=CLIENT|52=20241030-12:53:24.000|56=SERVER|10=145|
2024-10-30 13:53:49,913 - DEBUG - (Admin) S >> 8=FIX.4.3|9=56|35=0|34=18|49=SERVER|52=20241030-12:53:49.000|56=CLIENT|10=152|
2024-10-30 13:53:54,094 - DEBUG - (Admin) R << 8=FIX.4.3|9=56|35=0|34=19|49=CLIENT|52=20241030-12:53:54.000|56=SERVER|10=149|
2024-10-30 13:54:19,138 - DEBUG - (Admin) S >> 8=FIX.4.3|9=56|35=0|34=19|49=SERVER|52=20241030-12:54:19.000|56=CLIENT|10=151|
2024-10-30 13:54:24,349 - DEBUG - (Admin) R << 8=FIX.4.3|9=56|35=0|34=20|49=CLIENT|52=20241030-12:54:24.000|56=SERVER|10=139|
2024-10-30 13:54:49,446 - DEBUG - (Admin) S >> 8=FIX.4.3|9=56|35=0|34=20|49=SERVER|52=20241030-12:54:49.000|56=CLIENT|10=146|
2024-10-30 13:54:54,669 - DEBUG - (Admin) R << 8=FIX.4.3|9=56|35=0|34=21|49=CLIENT|52=20241030-12:54:54.000|56=SERVER|10=143|
2024-10-30 13:55:19,762 - DEBUG - (Admin) S >> 8=FIX.4.3|9=56|35=0|34=21|49=SERVER|52=20241030-12:55:19.000|56=CLIENT|10=145|
2024-10-30 13:55:24,988 - DEBUG - (Admin) R << 8=FIX.4.3|9=56|35=0|34=22|49=CLIENT|52=20241030-12:55:24.000|56=SERVER|10=142|
2024-10-30 13:55:49,080 - DEBUG - (Admin) S >> 8=FIX.4.3|9=56|35=0|34=22|49=SERVER|52=20241030-12:55:49.000|56=CLIENT|10=149|
2024-10-30 13:55:54,289 - DEBUG - (Admin) R << 8=FIX.4.3|9=56|35=0|34=23|49=CLIENT|52=20241030-12:55:54.000|56=SERVER|10=146|
2024-10-30 13:56:19,362 - DEBUG - (Admin) S >> 8=FIX.4.3|9=56|35=0|34=23|49=SERVER|52=20241030-12:56:19.000|56=CLIENT|10=148|
2024-10-30 13:56:24,557 - DEBUG - (Admin) R << 8=FIX.4.3|9=56|35=0|34=24|49=CLIENT|52=20241030-12:56:24.000|56=SERVER|10=145|
2024-10-30 13:56:49,652 - DEBUG - (Admin) S >> 8=FIX.4.3|9=56|35=0|34=24|49=SERVER|52=20241030-12:56:49.000|56=CLIENT|10=152|
2024-10-30 13:56:54,839 - DEBUG - (Admin) R << 8=FIX.4.3|9=56|35=0|34=25|49=CLIENT|52=20241030-12:56:54.000|56=SERVER|10=149|
2024-10-30 13:57:19,950 - DEBUG - (Admin) S >> 8=FIX.4.3|9=56|35=0|34=25|49=SERVER|52=20241030-12:57:19.000|56=CLIENT|10=151|
2024-10-30 13:57:24,096 - DEBUG - (Admin) R << 8=FIX.4.3|9=56|35=0|34=26|49=CLIENT|52=20241030-12:57:24.000|56=SERVER|10=148|
2024-10-30 13:57:49,243 - DEBUG - (Admin) S >> 8=FIX.4.3|9=56|35=0|34=26|49=SERVER|52=20241030-12:57:49.000|56=CLIENT|10=155|
2024-10-30 13:57:54,401 - DEBUG - (Admin) R << 8=FIX.4.3|9=56|35=0|34=27|49=CLIENT|52=20241030-12:57:54.000|56=SERVER|10=152|
2024-10-30 13:58:19,549 - DEBUG - (Admin) S >> 8=FIX.4.3|9=56|35=0|34=27|49=SERVER|52=20241030-12:58:19.000|56=CLIENT|10=154|
2024-10-30 13:58:24,740 - DEBUG - (Admin) R << 8=FIX.4.3|9=56|35=0|34=28|49=CLIENT|52=20241030-12:58:24.000|56=SERVER|10=151|
2024-10-30 13:58:49,820 - DEBUG - (Admin) S >> 8=FIX.4.3|9=56|35=0|34=28|49=SERVER|52=20241030-12:58:49.000|56=CLIENT|10=158|
2024-10-30 13:58:54,016 - DEBUG - (Admin) R << 8=FIX.4.3|9=56|35=0|34=29|49=CLIENT|52=20241030-12:58:54.000|56=SERVER|10=155|
2024-10-30 13:59:19,065 - DEBUG - (Admin) S >> 8=FIX.4.3|9=56|35=0|34=29|49=SERVER|52=20241030-12:59:19.000|56=CLIENT|10=157|
2024-10-30 13:59:24,302 - DEBUG - (Admin) R << 8=FIX.4.3|9=56|35=0|34=30|49=CLIENT|52=20241030-12:59:24.000|56=SERVER|10=145|
2024-10-30 13:59:49,391 - DEBUG - (Admin) S >> 8=FIX.4.3|9=56|35=0|34=30|49=SERVER|52=20241030-12:59:49.000|56=CLIENT|10=152|
2024-10-30 13:59:54,597 - DEBUG - (Admin) R << 8=FIX.4.3|9=56|35=0|34=31|49=CLIENT|52=20241030-12:59:54.000|56=SERVER|10=149|
2024-10-30 14:00:19,690 - DEBUG - (Admin) S >> 8=FIX.4.3|9=56|35=0|34=31|49=SERVER|52=20241030-13:00:19.000|56=CLIENT|10=137|
2024-10-30 14:00:24,896 - DEBUG - (Admin) R << 8=FIX.4.3|9=56|35=0|34=32|49=CLIENT|52=20241030-13:00:24.000|56=SERVER|10=134|
2024-10-30 14:00:49,964 - DEBUG - (Admin) S >> 8=FIX.4.3|9=56|35=0|34=32|49=SERVER|52=20241030-13:00:49.000|56=CLIENT|10=141|
2024-10-30 14:00:54,188 - DEBUG - (Admin) R << 8=FIX.4.3|9=56|35=0|34=33|49=CLIENT|52=20241030-13:00:54.000|56=SERVER|10=138|
2024-10-30 14:01:19,255 - DEBUG - (Admin) S >> 8=FIX.4.3|9=56|35=0|34=33|49=SERVER|52=20241030-13:01:19.000|56=CLIENT|10=140|
2024-10-30 14:01:24,485 - DEBUG - (Admin) R << 8=FIX.4.3|9=56|35=0|34=34|49=CLIENT|52=20241030-13:01:24.000|56=SERVER|10=137|
2024-10-30 14:01:49,557 - DEBUG - (Admin) S >> 8=FIX.4.3|9=56|35=0|34=34|49=SERVER|52=20241030-13:01:49.000|56=CLIENT|10=144|
2024-10-30 14:01:54,771 - DEBUG - (Admin) R << 8=FIX.4.3|9=56|35=0|34=35|49=CLIENT|52=20241030-13:01:54.000|56=SERVER|10=141|
2024-10-30 14:02:19,833 - DEBUG - (Admin) S >> 8=FIX.4.3|9=56|35=0|34=35|49=SERVER|52=20241030-13:02:19.000|56=CLIENT|10=143|
2024-10-30 14:02:24,052 - DEBUG - (Admin) R << 8=FIX.4.3|9=56|35=0|34=36|49=CLIENT|52=20241030-13:02:24.000|56=SERVER|10=140|
2024-10-30 14:02:49,124 - DEBUG - (Admin) S >> 8=FIX.4.3|9=56|35=0|34=36|49=SERVER|52=20241030-13:02:49.000|56=CLIENT|10=147|
2024-10-30 14:02:54,352 - DEBUG - (Admin) R << 8=FIX.4.3|9=56|35=0|34=37|49=CLIENT|52=20241030-13:02:54.000|56=SERVER|10=144|
2024-10-30 14:03:19,431 - DEBUG - (Admin) S >> 8=FIX.4.3|9=56|35=0|34=37|49=SERVER|52=20241030-13:03:19.000|56=CLIENT|10=146|
2024-10-30 14:03:24,656 - DEBUG - (Admin) R << 8=FIX.4.3|9=56|35=0|34=38|49=CLIENT|52=20241030-13:03:24.000|56=SERVER|10=143|
2024-10-30 14:03:49,703 - DEBUG - (Admin) S >> 8=FIX.4.3|9=56|35=0|34=38|49=SERVER|52=20241030-13:03:49.000|56=CLIENT|10=150|
2024-10-30 14:03:54,934 - DEBUG - (Admin) R << 8=FIX.4.3|9=56|35=0|34=39|49=CLIENT|52=20241030-13:03:54.000|56=SERVER|10=147|
2024-10-30 14:04:19,970 - DEBUG - (Admin) S >> 8=FIX.4.3|9=56|35=0|34=39|49=SERVER|52=20241030-13:04:19.000|56=CLIENT|10=149|
2024-10-30 14:04:24,194 - DEBUG - (Admin) R << 8=FIX.4.3|9=56|35=0|34=40|49=CLIENT|52=20241030-13:04:24.000|56=SERVER|10=137|
2024-10-30 14:04:49,237 - DEBUG - (Admin) S >> 8=FIX.4.3|9=56|35=0|34=40|49=SERVER|52=20241030-13:04:49.000|56=CLIENT|10=144|
2024-10-30 14:04:54,505 - DEBUG - (Admin) R << 8=FIX.4.3|9=56|35=0|34=41|49=CLIENT|52=20241030-13:04:54.000|56=SERVER|10=141|
2024-10-30 14:05:19,545 - DEBUG - (Admin) S >> 8=FIX.4.3|9=56|35=0|34=41|49=SERVER|52=20241030-13:05:19.000|56=CLIENT|10=143|
2024-10-30 14:05:24,825 - DEBUG - (Admin) R << 8=FIX.4.3|9=56|35=0|34=42|49=CLIENT|52=20241030-13:05:24.000|56=SERVER|10=140|
2024-10-30 14:05:49,844 - DEBUG - (Admin) S >> 8=FIX.4.3|9=56|35=0|34=42|49=SERVER|52=20241030-13:05:49.000|56=CLIENT|10=147|
2024-10-30 14:05:54,126 - DEBUG - (Admin) R << 8=FIX.4.3|9=56|35=0|34=43|49=CLIENT|52=20241030-13:05:54.000|56=SERVER|10=144|
2024-10-30 14:06:19,132 - DEBUG - (Admin) S >> 8=FIX.4.3|9=56|35=0|34=43|49=SERVER|52=20241030-13:06:19.000|56=CLIENT|10=146|
2024-10-30 14:06:24,431 - DEBUG - (Admin) R << 8=FIX.4.3|9=56|35=0|34=44|49=CLIENT|52=20241030-13:06:24.000|56=SERVER|10=143|
2024-10-30 14:06:49,381 - DEBUG - (Admin) S >> 8=FIX.4.3|9=56|35=0|34=44|49=SERVER|52=20241030-13:06:49.000|56=CLIENT|10=150|
2024-10-30 14:06:54,702 - DEBUG - (Admin) R << 8=FIX.4.3|9=56|35=0|34=45|49=CLIENT|52=20241030-13:06:54.000|56=SERVER|10=147|
2024-10-30 14:07:19,691 - DEBUG - (Admin) S >> 8=FIX.4.3|9=56|35=0|34=45|49=SERVER|52=20241030-13:07:19.000|56=CLIENT|10=149|
2024-10-30 14:07:25,000 - DEBUG - (Admin) R << 8=FIX.4.3|9=56|35=0|34=46|49=CLIENT|52=20241030-13:07:24.000|56=SERVER|10=146|
2024-10-30 14:07:49,983 - DEBUG - (Admin) S >> 8=FIX.4.3|9=56|35=0|34=46|49=SERVER|52=20241030-13:07:49.000|56=CLIENT|10=153|
2024-10-30 14:07:54,295 - DEBUG - (Admin) R << 8=FIX.4.3|9=56|35=0|34=47|49=CLIENT|52=20241030-13:07:54.000|56=SERVER|10=150|
2024-10-30 14:08:19,234 - DEBUG - (Admin) S >> 8=FIX.4.3|9=56|35=0|34=47|49=SERVER|52=20241030-13:08:19.000|56=CLIENT|10=152|
2024-10-30 14:08:24,581 - DEBUG - (Admin) R << 8=FIX.4.3|9=56|35=0|34=48|49=CLIENT|52=20241030-13:08:24.000|56=SERVER|10=149|
2024-10-30 14:08:49,546 - DEBUG - (Admin) S >> 8=FIX.4.3|9=56|35=0|34=48|49=SERVER|52=20241030-13:08:49.000|56=CLIENT|10=156|
2024-10-30 14:08:54,865 - DEBUG - (Admin) R << 8=FIX.4.3|9=56|35=0|34=49|49=CLIENT|52=20241030-13:08:54.000|56=SERVER|10=153|
2024-10-30 14:09:19,855 - DEBUG - (Admin) S >> 8=FIX.4.3|9=56|35=0|34=49|49=SERVER|52=20241030-13:09:19.000|56=CLIENT|10=155|
2024-10-30 14:09:24,187 - DEBUG - (Admin) R << 8=FIX.4.3|9=56|35=0|34=50|49=CLIENT|52=20241030-13:09:24.000|56=SERVER|10=143|
2024-10-30 14:09:49,095 - DEBUG - (Admin) S >> 8=FIX.4.3|9=56|35=0|34=50|49=SERVER|52=20241030-13:09:49.000|56=CLIENT|10=150|
2024-10-30 14:09:54,442 - DEBUG - (Admin) R << 8=FIX.4.3|9=56|35=0|34=51|49=CLIENT|52=20241030-13:09:54.000|56=SERVER|10=147|
2024-10-30 14:10:19,370 - DEBUG - (Admin) S >> 8=FIX.4.3|9=56|35=0|34=51|49=SERVER|52=20241030-13:10:19.000|56=CLIENT|10=140|
2024-10-30 14:10:24,730 - DEBUG - (Admin) R << 8=FIX.4.3|9=56|35=0|34=52|49=CLIENT|52=20241030-13:10:24.000|56=SERVER|10=137|
2024-10-30 14:10:49,657 - DEBUG - (Admin) S >> 8=FIX.4.3|9=56|35=0|34=52|49=SERVER|52=20241030-13:10:49.000|56=CLIENT|10=144|
2024-10-30 14:10:54,013 - DEBUG - (Admin) R << 8=FIX.4.3|9=56|35=0|34=53|49=CLIENT|52=20241030-13:10:54.000|56=SERVER|10=141|
2024-10-30 14:11:19,961 - DEBUG - (Admin) S >> 8=FIX.4.3|9=56|35=0|34=53|49=SERVER|52=20241030-13:11:19.000|56=CLIENT|10=143|
2024-10-30 14:11:24,298 - DEBUG - (Admin) R << 8=FIX.4.3|9=56|35=0|34=54|49=CLIENT|52=20241030-13:11:24.000|56=SERVER|10=140|
2024-10-30 14:11:49,234 - DEBUG - (Admin) S >> 8=FIX.4.3|9=56|35=0|34=54|49=SERVER|52=20241030-13:11:49.000|56=CLIENT|10=147|
2024-10-30 14:11:54,587 - DEBUG - (Admin) R << 8=FIX.4.3|9=56|35=0|34=55|49=CLIENT|52=20241030-13:11:54.000|56=SERVER|10=144|
2024-10-30 14:12:19,582 - DEBUG - (Admin) S >> 8=FIX.4.3|9=56|35=0|34=55|49=SERVER|52=20241030-13:12:19.000|56=CLIENT|10=146|
2024-10-30 14:12:24,833 - DEBUG - (Admin) R << 8=FIX.4.3|9=56|35=0|34=56|49=CLIENT|52=20241030-13:12:24.000|56=SERVER|10=143|
2024-10-30 14:12:49,801 - DEBUG - (Admin) S >> 8=FIX.4.3|9=56|35=0|34=56|49=SERVER|52=20241030-13:12:49.000|56=CLIENT|10=150|
2024-10-30 14:12:54,062 - DEBUG - (Admin) R << 8=FIX.4.3|9=56|35=0|34=57|49=CLIENT|52=20241030-13:12:54.000|56=SERVER|10=147|
2024-10-30 14:13:19,060 - DEBUG - (Admin) S >> 8=FIX.4.3|9=56|35=0|34=57|49=SERVER|52=20241030-13:13:19.000|56=CLIENT|10=149|
2024-10-30 14:13:24,354 - DEBUG - (Admin) R << 8=FIX.4.3|9=56|35=0|34=58|49=CLIENT|52=20241030-13:13:24.000|56=SERVER|10=146|
2024-10-30 14:13:49,324 - DEBUG - (Admin) S >> 8=FIX.4.3|9=56|35=0|34=58|49=SERVER|52=20241030-13:13:49.000|56=CLIENT|10=153|
2024-10-30 14:13:54,647 - DEBUG - (Admin) R << 8=FIX.4.3|9=56|35=0|34=59|49=CLIENT|52=20241030-13:13:54.000|56=SERVER|10=150|
2024-10-30 14:14:19,604 - DEBUG - (Admin) S >> 8=FIX.4.3|9=56|35=0|34=59|49=SERVER|52=20241030-13:14:19.000|56=CLIENT|10=152|
2024-10-30 14:14:24,934 - DEBUG - (Admin) R << 8=FIX.4.3|9=56|35=0|34=60|49=CLIENT|52=20241030-13:14:24.000|56=SERVER|10=140|
2024-10-30 14:14:49,902 - DEBUG - (Admin) S >> 8=FIX.4.3|9=56|35=0|34=60|49=SERVER|52=20241030-13:14:49.000|56=CLIENT|10=147|
2024-10-30 14:14:54,221 - DEBUG - (Admin) R << 8=FIX.4.3|9=56|35=0|34=61|49=CLIENT|52=20241030-13:14:54.000|56=SERVER|10=144|
2024-10-30 14:15:19,175 - DEBUG - (Admin) S >> 8=FIX.4.3|9=56|35=0|34=61|49=SERVER|52=20241030-13:15:19.000|56=CLIENT|10=146|
2024-10-30 14:15:24,513 - DEBUG - (Admin) R << 8=FIX.4.3|9=56|35=0|34=62|49=CLIENT|52=20241030-13:15:24.000|56=SERVER|10=143|
2024-10-30 14:15:49,466 - DEBUG - (Admin) S >> 8=FIX.4.3|9=56|35=0|34=62|49=SERVER|52=20241030-13:15:49.000|56=CLIENT|10=150|
2024-10-30 14:15:54,817 - DEBUG - (Admin) R << 8=FIX.4.3|9=56|35=0|34=63|49=CLIENT|52=20241030-13:15:54.000|56=SERVER|10=147|
2024-10-30 14:16:19,766 - DEBUG - (Admin) S >> 8=FIX.4.3|9=56|35=0|34=63|49=SERVER|52=20241030-13:16:19.000|56=CLIENT|10=149|
2024-10-30 14:16:24,101 - DEBUG - (Admin) R << 8=FIX.4.3|9=56|35=0|34=64|49=CLIENT|52=20241030-13:16:24.000|56=SERVER|10=146|
2024-10-30 14:16:49,035 - DEBUG - (Admin) S >> 8=FIX.4.3|9=56|35=0|34=64|49=SERVER|52=20241030-13:16:49.000|56=CLIENT|10=153|
2024-10-30 14:16:54,355 - DEBUG - (Admin) R << 8=FIX.4.3|9=56|35=0|34=65|49=CLIENT|52=20241030-13:16:54.000|56=SERVER|10=150|
2024-10-30 14:17:19,291 - DEBUG - (Admin) S >> 8=FIX.4.3|9=56|35=0|34=65|49=SERVER|52=20241030-13:17:19.000|56=CLIENT|10=152|
2024-10-30 14:17:24,610 - DEBUG - (Admin) R << 8=FIX.4.3|9=56|35=0|34=66|49=CLIENT|52=20241030-13:17:24.000|56=SERVER|10=149|
2024-10-30 14:17:49,572 - DEBUG - (Admin) S >> 8=FIX.4.3|9=56|35=0|34=66|49=SERVER|52=20241030-13:17:49.000|56=CLIENT|10=156|
2024-10-30 14:17:54,898 - DEBUG - (Admin) R << 8=FIX.4.3|9=56|35=0|34=67|49=CLIENT|52=20241030-13:17:54.000|56=SERVER|10=153|
2024-10-30 14:18:19,855 - DEBUG - (Admin) S >> 8=FIX.4.3|9=56|35=0|34=67|49=SERVER|52=20241030-13:18:19.000|56=CLIENT|10=155|
2024-10-30 14:18:24,159 - DEBUG - (Admin) R << 8=FIX.4.3|9=56|35=0|34=68|49=CLIENT|52=20241030-13:18:24.000|56=SERVER|10=152|
2024-10-30 14:18:49,176 - DEBUG - (Admin) S >> 8=FIX.4.3|9=56|35=0|34=68|49=SERVER|52=20241030-13:18:49.000|56=CLIENT|10=159|
2024-10-30 14:18:54,478 - DEBUG - (Admin) R << 8=FIX.4.3|9=56|35=0|34=69|49=CLIENT|52=20241030-13:18:54.000|56=SERVER|10=156|
2024-10-30 14:19:19,480 - DEBUG - (Admin) S >> 8=FIX.4.3|9=56|35=0|34=69|49=SERVER|52=20241030-13:19:19.000|56=CLIENT|10=158|
2024-10-30 14:19:24,798 - DEBUG - (Admin) R << 8=FIX.4.3|9=56|35=0|34=70|49=CLIENT|52=20241030-13:19:24.000|56=SERVER|10=146|
2024-10-30 14:19:49,796 - DEBUG - (Admin) S >> 8=FIX.4.3|9=56|35=0|34=70|49=SERVER|52=20241030-13:19:49.000|56=CLIENT|10=153|
2024-10-30 14:19:54,095 - DEBUG - (Admin) R << 8=FIX.4.3|9=56|35=0|34=71|49=CLIENT|52=20241030-13:19:54.000|56=SERVER|10=150|
2024-10-30 14:20:19,099 - DEBUG - (Admin) S >> 8=FIX.4.3|9=56|35=0|34=71|49=SERVER|52=20241030-13:20:19.000|56=CLIENT|10=143|
2024-10-30 14:20:24,439 - DEBUG - (Admin) R << 8=FIX.4.3|9=56|35=0|34=72|49=CLIENT|52=20241030-13:20:24.000|56=SERVER|10=140|
2024-10-30 14:20:49,422 - DEBUG - (Admin) S >> 8=FIX.4.3|9=56|35=0|34=72|49=SERVER|52=20241030-13:20:49.000|56=CLIENT|10=147|
2024-10-30 14:20:54,741 - DEBUG - (Admin) R << 8=FIX.4.3|9=56|35=0|34=73|49=CLIENT|52=20241030-13:20:54.000|56=SERVER|10=144|
2024-10-30 14:21:19,766 - DEBUG - (Admin) S >> 8=FIX.4.3|9=56|35=0|34=73|49=SERVER|52=20241030-13:21:19.000|56=CLIENT|10=146|
2024-10-30 14:21:24,045 - DEBUG - (Admin) R << 8=FIX.4.3|9=56|35=0|34=74|49=CLIENT|52=20241030-13:21:24.000|56=SERVER|10=143|
2024-10-30 14:21:49,050 - DEBUG - (Admin) S >> 8=FIX.4.3|9=56|35=0|34=74|49=SERVER|52=20241030-13:21:49.000|56=CLIENT|10=150|
2024-10-30 14:21:54,345 - DEBUG - (Admin) R << 8=FIX.4.3|9=56|35=0|34=75|49=CLIENT|52=20241030-13:21:54.000|56=SERVER|10=147|
2024-10-30 14:22:19,334 - DEBUG - (Admin) S >> 8=FIX.4.3|9=56|35=0|34=75|49=SERVER|52=20241030-13:22:19.000|56=CLIENT|10=149|
2024-10-30 14:22:24,636 - DEBUG - (Admin) R << 8=FIX.4.3|9=56|35=0|34=76|49=CLIENT|52=20241030-13:22:24.000|56=SERVER|10=146|
2024-10-30 14:22:49,628 - DEBUG - (Admin) S >> 8=FIX.4.3|9=56|35=0|34=76|49=SERVER|52=20241030-13:22:49.000|56=CLIENT|10=153|
2024-10-30 14:22:54,932 - DEBUG - (Admin) R << 8=FIX.4.3|9=56|35=0|34=77|49=CLIENT|52=20241030-13:22:54.000|56=SERVER|10=150|
2024-10-30 14:23:19,946 - DEBUG - (Admin) S >> 8=FIX.4.3|9=56|35=0|34=77|49=SERVER|52=20241030-13:23:19.000|56=CLIENT|10=152|
2024-10-30 14:23:24,216 - DEBUG - (Admin) R << 8=FIX.4.3|9=56|35=0|34=78|49=CLIENT|52=20241030-13:23:24.000|56=SERVER|10=149|
2024-10-30 14:23:49,251 - DEBUG - (Admin) S >> 8=FIX.4.3|9=56|35=0|34=78|49=SERVER|52=20241030-13:23:49.000|56=CLIENT|10=156|
2024-10-30 14:23:54,504 - DEBUG - (Admin) R << 8=FIX.4.3|9=56|35=0|34=79|49=CLIENT|52=20241030-13:23:54.000|56=SERVER|10=153|
2024-10-30 14:24:19,550 - DEBUG - (Admin) S >> 8=FIX.4.3|9=56|35=0|34=79|49=SERVER|52=20241030-13:24:19.000|56=CLIENT|10=155|
2024-10-30 14:24:24,791 - DEBUG - (Admin) R << 8=FIX.4.3|9=56|35=0|34=80|49=CLIENT|52=20241030-13:24:24.000|56=SERVER|10=143|
2024-10-30 14:24:49,825 - DEBUG - (Admin) S >> 8=FIX.4.3|9=56|35=0|34=80|49=SERVER|52=20241030-13:24:49.000|56=CLIENT|10=150|
2024-10-30 14:24:54,048 - DEBUG - (Admin) R << 8=FIX.4.3|9=56|35=0|34=81|49=CLIENT|52=20241030-13:24:54.000|56=SERVER|10=147|
2024-10-30 14:25:19,099 - DEBUG - (Admin) S >> 8=FIX.4.3|9=56|35=0|34=81|49=SERVER|52=20241030-13:25:19.000|56=CLIENT|10=149|
2024-10-30 14:25:24,342 - DEBUG - (Admin) R << 8=FIX.4.3|9=56|35=0|34=82|49=CLIENT|52=20241030-13:25:24.000|56=SERVER|10=146|
2024-10-30 14:25:49,394 - DEBUG - (Admin) S >> 8=FIX.4.3|9=56|35=0|34=82|49=SERVER|52=20241030-13:25:49.000|56=CLIENT|10=153|
2024-10-30 14:25:54,627 - DEBUG - (Admin) R << 8=FIX.4.3|9=56|35=0|34=83|49=CLIENT|52=20241030-13:25:54.000|56=SERVER|10=150|
2024-10-30 14:26:19,691 - DEBUG - (Admin) S >> 8=FIX.4.3|9=56|35=0|34=83|49=SERVER|52=20241030-13:26:19.000|56=CLIENT|10=152|
2024-10-30 14:26:24,920 - DEBUG - (Admin) R << 8=FIX.4.3|9=56|35=0|34=84|49=CLIENT|52=20241030-13:26:24.000|56=SERVER|10=149|
