2024-10-30 13:45:18,229 - INFO - (Admin) S >> 8=FIX.4.3|9=73|35=A|34=1|49=CLIENT|52=20241030-12:45:18.000|56=SERVER|98=0|108=30|141=Y|10=179|
2024-10-30 13:45:18,240 - INFO - (Admin) R << 8=FIX.4.3|9=73|35=A|34=1|49=SERVER|52=20241030-12:45:18.000|56=CLIENT|98=0|108=30|141=Y|10=179|
2024-10-30 13:45:24,286 - INFO - (App) S >> 8=FIX.4.3|9=151|35=D|34=2|49=CLIENT|52=20241030-12:45:24.000|56=SERVER|11=00001|21=3|38=10000|40=2|44=100|54=1|55=MSFT|58=NewOrderSingle|59=0|60=20241030-13:45:24.286|10=064|
2024-10-30 13:45:48,442 - INFO - (Admin) R << 8=FIX.4.3|9=55|35=0|34=2|49=SERVER|52=20241030-12:45:48.000|56=CLIENT|10=096|
2024-10-30 13:45:54,599 - INFO - (Admin) S >> 8=FIX.4.3|9=55|35=0|34=3|49=CLIENT|52=20241030-12:45:54.000|56=SERVER|10=094|
2024-10-30 13:46:18,718 - INFO - (Admin) R << 8=FIX.4.3|9=55|35=0|34=3|49=SERVER|52=20241030-12:46:18.000|56=CLIENT|10=095|
2024-10-30 13:46:24,860 - INFO - (Admin) S >> 8=FIX.4.3|9=55|35=0|34=4|49=CLIENT|52=20241030-12:46:24.000|56=SERVER|10=093|
2024-10-30 13:46:48,011 - INFO - (Admin) R << 8=FIX.4.3|9=55|35=0|34=4|49=SERVER|52=20241030-12:46:48.000|56=CLIENT|10=099|
2024-10-30 13:46:54,146 - INFO - (Admin) S >> 8=FIX.4.3|9=55|35=0|34=5|49=CLIENT|52=20241030-12:46:54.000|56=SERVER|10=097|
2024-10-30 13:47:18,305 - INFO - (Admin) R << 8=FIX.4.3|9=55|35=0|34=5|49=SERVER|52=20241030-12:47:18.000|56=CLIENT|10=098|
2024-10-30 13:47:24,407 - INFO - (Admin) S >> 8=FIX.4.3|9=55|35=0|34=6|49=CLIENT|52=20241030-12:47:24.000|56=SERVER|10=096|
2024-10-30 13:47:48,591 - INFO - (Admin) R << 8=FIX.4.3|9=55|35=0|34=6|49=SERVER|52=20241030-12:47:48.000|56=CLIENT|10=102|
2024-10-30 13:47:54,769 - INFO - (Admin) S >> 8=FIX.4.3|9=55|35=0|34=7|49=CLIENT|52=20241030-12:47:54.000|56=SERVER|10=100|
2024-10-30 13:48:18,873 - INFO - (Admin) R << 8=FIX.4.3|9=55|35=0|34=7|49=SERVER|52=20241030-12:48:18.000|56=CLIENT|10=101|
2024-10-30 13:48:24,052 - INFO - (Admin) S >> 8=FIX.4.3|9=55|35=0|34=8|49=CLIENT|52=20241030-12:48:24.000|56=SERVER|10=099|
2024-10-30 13:48:48,174 - INFO - (Admin) R << 8=FIX.4.3|9=55|35=0|34=8|49=SERVER|52=20241030-12:48:48.000|56=CLIENT|10=105|
2024-10-30 13:48:54,368 - INFO - (Admin) S >> 8=FIX.4.3|9=55|35=0|34=9|49=CLIENT|52=20241030-12:48:54.000|56=SERVER|10=103|
2024-10-30 13:49:18,416 - INFO - (Admin) R << 8=FIX.4.3|9=55|35=0|34=9|49=SERVER|52=20241030-12:49:18.000|56=CLIENT|10=104|
2024-10-30 13:49:24,599 - INFO - (Admin) S >> 8=FIX.4.3|9=56|35=0|34=10|49=CLIENT|52=20241030-12:49:24.000|56=SERVER|10=142|
2024-10-30 13:49:48,704 - INFO - (Admin) R << 8=FIX.4.3|9=56|35=0|34=10|49=SERVER|52=20241030-12:49:48.000|56=CLIENT|10=148|
2024-10-30 13:49:54,916 - INFO - (Admin) S >> 8=FIX.4.3|9=56|35=0|34=11|49=CLIENT|52=20241030-12:49:54.000|56=SERVER|10=146|
2024-10-30 13:50:19,007 - INFO - (Admin) R << 8=FIX.4.3|9=56|35=0|34=11|49=SERVER|52=20241030-12:50:19.000|56=CLIENT|10=139|
2024-10-30 13:50:24,212 - INFO - (Admin) S >> 8=FIX.4.3|9=56|35=0|34=12|49=CLIENT|52=20241030-12:50:24.000|56=SERVER|10=136|
2024-10-30 13:50:49,285 - INFO - (Admin) R << 8=FIX.4.3|9=56|35=0|34=12|49=SERVER|52=20241030-12:50:49.000|56=CLIENT|10=143|
2024-10-30 13:50:54,485 - INFO - (Admin) S >> 8=FIX.4.3|9=56|35=0|34=13|49=CLIENT|52=20241030-12:50:54.000|56=SERVER|10=140|
2024-10-30 13:51:19,496 - INFO - (Admin) R << 8=FIX.4.3|9=56|35=0|34=13|49=SERVER|52=20241030-12:51:19.000|56=CLIENT|10=142|
2024-10-30 13:51:24,694 - INFO - (Admin) S >> 8=FIX.4.3|9=56|35=0|34=14|49=CLIENT|52=20241030-12:51:24.000|56=SERVER|10=139|
2024-10-30 13:51:49,768 - INFO - (Admin) R << 8=FIX.4.3|9=56|35=0|34=14|49=SERVER|52=20241030-12:51:49.000|56=CLIENT|10=146|
2024-10-30 13:51:54,989 - INFO - (Admin) S >> 8=FIX.4.3|9=56|35=0|34=15|49=CLIENT|52=20241030-12:51:54.000|56=SERVER|10=143|
2024-10-30 13:52:19,032 - INFO - (Admin) R << 8=FIX.4.3|9=56|35=0|34=15|49=SERVER|52=20241030-12:52:19.000|56=CLIENT|10=145|
2024-10-30 13:52:24,241 - INFO - (Admin) S >> 8=FIX.4.3|9=56|35=0|34=16|49=CLIENT|52=20241030-12:52:24.000|56=SERVER|10=142|
2024-10-30 13:52:49,290 - INFO - (Admin) R << 8=FIX.4.3|9=56|35=0|34=16|49=SERVER|52=20241030-12:52:49.000|56=CLIENT|10=149|
2024-10-30 13:52:54,504 - INFO - (Admin) S >> 8=FIX.4.3|9=56|35=0|34=17|49=CLIENT|52=20241030-12:52:54.000|56=SERVER|10=146|
2024-10-30 13:53:19,624 - INFO - (Admin) R << 8=FIX.4.3|9=56|35=0|34=17|49=SERVER|52=20241030-12:53:19.000|56=CLIENT|10=148|
2024-10-30 13:53:24,826 - INFO - (Admin) S >> 8=FIX.4.3|9=56|35=0|34=18|49=CLIENT|52=20241030-12:53:24.000|56=SERVER|10=145|
2024-10-30 13:53:49,913 - INFO - (Admin) R << 8=FIX.4.3|9=56|35=0|34=18|49=SERVER|52=20241030-12:53:49.000|56=CLIENT|10=152|
2024-10-30 13:53:54,094 - INFO - (Admin) S >> 8=FIX.4.3|9=56|35=0|34=19|49=CLIENT|52=20241030-12:53:54.000|56=SERVER|10=149|
2024-10-30 13:54:19,138 - INFO - (Admin) R << 8=FIX.4.3|9=56|35=0|34=19|49=SERVER|52=20241030-12:54:19.000|56=CLIENT|10=151|
2024-10-30 13:54:24,348 - INFO - (Admin) S >> 8=FIX.4.3|9=56|35=0|34=20|49=CLIENT|52=20241030-12:54:24.000|56=SERVER|10=139|
2024-10-30 13:54:49,446 - INFO - (Admin) R << 8=FIX.4.3|9=56|35=0|34=20|49=SERVER|52=20241030-12:54:49.000|56=CLIENT|10=146|
2024-10-30 13:54:54,668 - INFO - (Admin) S >> 8=FIX.4.3|9=56|35=0|34=21|49=CLIENT|52=20241030-12:54:54.000|56=SERVER|10=143|
2024-10-30 13:55:19,763 - INFO - (Admin) R << 8=FIX.4.3|9=56|35=0|34=21|49=SERVER|52=20241030-12:55:19.000|56=CLIENT|10=145|
2024-10-30 13:55:24,987 - INFO - (Admin) S >> 8=FIX.4.3|9=56|35=0|34=22|49=CLIENT|52=20241030-12:55:24.000|56=SERVER|10=142|
2024-10-30 13:55:49,081 - INFO - (Admin) R << 8=FIX.4.3|9=56|35=0|34=22|49=SERVER|52=20241030-12:55:49.000|56=CLIENT|10=149|
2024-10-30 13:55:54,288 - INFO - (Admin) S >> 8=FIX.4.3|9=56|35=0|34=23|49=CLIENT|52=20241030-12:55:54.000|56=SERVER|10=146|
2024-10-30 13:56:19,363 - INFO - (Admin) R << 8=FIX.4.3|9=56|35=0|34=23|49=SERVER|52=20241030-12:56:19.000|56=CLIENT|10=148|
2024-10-30 13:56:24,556 - INFO - (Admin) S >> 8=FIX.4.3|9=56|35=0|34=24|49=CLIENT|52=20241030-12:56:24.000|56=SERVER|10=145|
2024-10-30 13:56:49,653 - INFO - (Admin) R << 8=FIX.4.3|9=56|35=0|34=24|49=SERVER|52=20241030-12:56:49.000|56=CLIENT|10=152|
2024-10-30 13:56:54,838 - INFO - (Admin) S >> 8=FIX.4.3|9=56|35=0|34=25|49=CLIENT|52=20241030-12:56:54.000|56=SERVER|10=149|
2024-10-30 13:57:19,951 - INFO - (Admin) R << 8=FIX.4.3|9=56|35=0|34=25|49=SERVER|52=20241030-12:57:19.000|56=CLIENT|10=151|
2024-10-30 13:57:24,096 - INFO - (Admin) S >> 8=FIX.4.3|9=56|35=0|34=26|49=CLIENT|52=20241030-12:57:24.000|56=SERVER|10=148|
2024-10-30 13:57:49,244 - INFO - (Admin) R << 8=FIX.4.3|9=56|35=0|34=26|49=SERVER|52=20241030-12:57:49.000|56=CLIENT|10=155|
2024-10-30 13:57:54,401 - INFO - (Admin) S >> 8=FIX.4.3|9=56|35=0|34=27|49=CLIENT|52=20241030-12:57:54.000|56=SERVER|10=152|
2024-10-30 13:58:19,550 - INFO - (Admin) R << 8=FIX.4.3|9=56|35=0|34=27|49=SERVER|52=20241030-12:58:19.000|56=CLIENT|10=154|
2024-10-30 13:58:24,739 - INFO - (Admin) S >> 8=FIX.4.3|9=56|35=0|34=28|49=CLIENT|52=20241030-12:58:24.000|56=SERVER|10=151|
2024-10-30 13:58:49,821 - INFO - (Admin) R << 8=FIX.4.3|9=56|35=0|34=28|49=SERVER|52=20241030-12:58:49.000|56=CLIENT|10=158|
2024-10-30 13:58:54,015 - INFO - (Admin) S >> 8=FIX.4.3|9=56|35=0|34=29|49=CLIENT|52=20241030-12:58:54.000|56=SERVER|10=155|
2024-10-30 13:59:19,066 - INFO - (Admin) R << 8=FIX.4.3|9=56|35=0|34=29|49=SERVER|52=20241030-12:59:19.000|56=CLIENT|10=157|
2024-10-30 13:59:24,301 - INFO - (Admin) S >> 8=FIX.4.3|9=56|35=0|34=30|49=CLIENT|52=20241030-12:59:24.000|56=SERVER|10=145|
2024-10-30 13:59:49,392 - INFO - (Admin) R << 8=FIX.4.3|9=56|35=0|34=30|49=SERVER|52=20241030-12:59:49.000|56=CLIENT|10=152|
2024-10-30 13:59:54,596 - INFO - (Admin) S >> 8=FIX.4.3|9=56|35=0|34=31|49=CLIENT|52=20241030-12:59:54.000|56=SERVER|10=149|
2024-10-30 14:00:19,691 - INFO - (Admin) R << 8=FIX.4.3|9=56|35=0|34=31|49=SERVER|52=20241030-13:00:19.000|56=CLIENT|10=137|
2024-10-30 14:00:24,895 - INFO - (Admin) S >> 8=FIX.4.3|9=56|35=0|34=32|49=CLIENT|52=20241030-13:00:24.000|56=SERVER|10=134|
2024-10-30 14:00:49,966 - INFO - (Admin) R << 8=FIX.4.3|9=56|35=0|34=32|49=SERVER|52=20241030-13:00:49.000|56=CLIENT|10=141|
2024-10-30 14:00:54,187 - INFO - (Admin) S >> 8=FIX.4.3|9=56|35=0|34=33|49=CLIENT|52=20241030-13:00:54.000|56=SERVER|10=138|
2024-10-30 14:01:19,256 - INFO - (Admin) R << 8=FIX.4.3|9=56|35=0|34=33|49=SERVER|52=20241030-13:01:19.000|56=CLIENT|10=140|
2024-10-30 14:01:24,485 - INFO - (Admin) S >> 8=FIX.4.3|9=56|35=0|34=34|49=CLIENT|52=20241030-13:01:24.000|56=SERVER|10=137|
2024-10-30 14:01:49,558 - INFO - (Admin) R << 8=FIX.4.3|9=56|35=0|34=34|49=SERVER|52=20241030-13:01:49.000|56=CLIENT|10=144|
2024-10-30 14:01:54,770 - INFO - (Admin) S >> 8=FIX.4.3|9=56|35=0|34=35|49=CLIENT|52=20241030-13:01:54.000|56=SERVER|10=141|
2024-10-30 14:02:19,834 - INFO - (Admin) R << 8=FIX.4.3|9=56|35=0|34=35|49=SERVER|52=20241030-13:02:19.000|56=CLIENT|10=143|
2024-10-30 14:02:24,051 - INFO - (Admin) S >> 8=FIX.4.3|9=56|35=0|34=36|49=CLIENT|52=20241030-13:02:24.000|56=SERVER|10=140|
2024-10-30 14:02:49,125 - INFO - (Admin) R << 8=FIX.4.3|9=56|35=0|34=36|49=SERVER|52=20241030-13:02:49.000|56=CLIENT|10=147|
2024-10-30 14:02:54,351 - INFO - (Admin) S >> 8=FIX.4.3|9=56|35=0|34=37|49=CLIENT|52=20241030-13:02:54.000|56=SERVER|10=144|
2024-10-30 14:03:19,432 - INFO - (Admin) R << 8=FIX.4.3|9=56|35=0|34=37|49=SERVER|52=20241030-13:03:19.000|56=CLIENT|10=146|
2024-10-30 14:03:24,655 - INFO - (Admin) S >> 8=FIX.4.3|9=56|35=0|34=38|49=CLIENT|52=20241030-13:03:24.000|56=SERVER|10=143|
2024-10-30 14:03:49,704 - INFO - (Admin) R << 8=FIX.4.3|9=56|35=0|34=38|49=SERVER|52=20241030-13:03:49.000|56=CLIENT|10=150|
2024-10-30 14:03:54,933 - INFO - (Admin) S >> 8=FIX.4.3|9=56|35=0|34=39|49=CLIENT|52=20241030-13:03:54.000|56=SERVER|10=147|
2024-10-30 14:04:19,971 - INFO - (Admin) R << 8=FIX.4.3|9=56|35=0|34=39|49=SERVER|52=20241030-13:04:19.000|56=CLIENT|10=149|
2024-10-30 14:04:24,193 - INFO - (Admin) S >> 8=FIX.4.3|9=56|35=0|34=40|49=CLIENT|52=20241030-13:04:24.000|56=SERVER|10=137|
2024-10-30 14:04:49,238 - INFO - (Admin) R << 8=FIX.4.3|9=56|35=0|34=40|49=SERVER|52=20241030-13:04:49.000|56=CLIENT|10=144|
2024-10-30 14:04:54,504 - INFO - (Admin) S >> 8=FIX.4.3|9=56|35=0|34=41|49=CLIENT|52=20241030-13:04:54.000|56=SERVER|10=141|
2024-10-30 14:05:19,546 - INFO - (Admin) R << 8=FIX.4.3|9=56|35=0|34=41|49=SERVER|52=20241030-13:05:19.000|56=CLIENT|10=143|
2024-10-30 14:05:24,824 - INFO - (Admin) S >> 8=FIX.4.3|9=56|35=0|34=42|49=CLIENT|52=20241030-13:05:24.000|56=SERVER|10=140|
2024-10-30 14:05:49,844 - INFO - (Admin) R << 8=FIX.4.3|9=56|35=0|34=42|49=SERVER|52=20241030-13:05:49.000|56=CLIENT|10=147|
2024-10-30 14:05:54,125 - INFO - (Admin) S >> 8=FIX.4.3|9=56|35=0|34=43|49=CLIENT|52=20241030-13:05:54.000|56=SERVER|10=144|
2024-10-30 14:06:19,132 - INFO - (Admin) R << 8=FIX.4.3|9=56|35=0|34=43|49=SERVER|52=20241030-13:06:19.000|56=CLIENT|10=146|
2024-10-30 14:06:24,430 - INFO - (Admin) S >> 8=FIX.4.3|9=56|35=0|34=44|49=CLIENT|52=20241030-13:06:24.000|56=SERVER|10=143|
2024-10-30 14:06:49,382 - INFO - (Admin) R << 8=FIX.4.3|9=56|35=0|34=44|49=SERVER|52=20241030-13:06:49.000|56=CLIENT|10=150|
2024-10-30 14:06:54,701 - INFO - (Admin) S >> 8=FIX.4.3|9=56|35=0|34=45|49=CLIENT|52=20241030-13:06:54.000|56=SERVER|10=147|
2024-10-30 14:07:19,692 - INFO - (Admin) R << 8=FIX.4.3|9=56|35=0|34=45|49=SERVER|52=20241030-13:07:19.000|56=CLIENT|10=149|
2024-10-30 14:07:24,999 - INFO - (Admin) S >> 8=FIX.4.3|9=56|35=0|34=46|49=CLIENT|52=20241030-13:07:24.000|56=SERVER|10=146|
2024-10-30 14:07:49,984 - INFO - (Admin) R << 8=FIX.4.3|9=56|35=0|34=46|49=SERVER|52=20241030-13:07:49.000|56=CLIENT|10=153|
2024-10-30 14:07:54,294 - INFO - (Admin) S >> 8=FIX.4.3|9=56|35=0|34=47|49=CLIENT|52=20241030-13:07:54.000|56=SERVER|10=150|
2024-10-30 14:08:19,234 - INFO - (Admin) R << 8=FIX.4.3|9=56|35=0|34=47|49=SERVER|52=20241030-13:08:19.000|56=CLIENT|10=152|
2024-10-30 14:08:24,580 - INFO - (Admin) S >> 8=FIX.4.3|9=56|35=0|34=48|49=CLIENT|52=20241030-13:08:24.000|56=SERVER|10=149|
2024-10-30 14:08:49,547 - INFO - (Admin) R << 8=FIX.4.3|9=56|35=0|34=48|49=SERVER|52=20241030-13:08:49.000|56=CLIENT|10=156|
2024-10-30 14:08:54,865 - INFO - (Admin) S >> 8=FIX.4.3|9=56|35=0|34=49|49=CLIENT|52=20241030-13:08:54.000|56=SERVER|10=153|
2024-10-30 14:09:19,856 - INFO - (Admin) R << 8=FIX.4.3|9=56|35=0|34=49|49=SERVER|52=20241030-13:09:19.000|56=CLIENT|10=155|
2024-10-30 14:09:24,187 - INFO - (Admin) S >> 8=FIX.4.3|9=56|35=0|34=50|49=CLIENT|52=20241030-13:09:24.000|56=SERVER|10=143|
2024-10-30 14:09:49,096 - INFO - (Admin) R << 8=FIX.4.3|9=56|35=0|34=50|49=SERVER|52=20241030-13:09:49.000|56=CLIENT|10=150|
2024-10-30 14:09:54,441 - INFO - (Admin) S >> 8=FIX.4.3|9=56|35=0|34=51|49=CLIENT|52=20241030-13:09:54.000|56=SERVER|10=147|
2024-10-30 14:10:19,371 - INFO - (Admin) R << 8=FIX.4.3|9=56|35=0|34=51|49=SERVER|52=20241030-13:10:19.000|56=CLIENT|10=140|
2024-10-30 14:10:24,729 - INFO - (Admin) S >> 8=FIX.4.3|9=56|35=0|34=52|49=CLIENT|52=20241030-13:10:24.000|56=SERVER|10=137|
2024-10-30 14:10:49,658 - INFO - (Admin) R << 8=FIX.4.3|9=56|35=0|34=52|49=SERVER|52=20241030-13:10:49.000|56=CLIENT|10=144|
2024-10-30 14:10:54,012 - INFO - (Admin) S >> 8=FIX.4.3|9=56|35=0|34=53|49=CLIENT|52=20241030-13:10:54.000|56=SERVER|10=141|
2024-10-30 14:11:19,962 - INFO - (Admin) R << 8=FIX.4.3|9=56|35=0|34=53|49=SERVER|52=20241030-13:11:19.000|56=CLIENT|10=143|
2024-10-30 14:11:24,273 - INFO - (Admin) S >> 8=FIX.4.3|9=56|35=0|34=54|49=CLIENT|52=20241030-13:11:24.000|56=SERVER|10=140|
2024-10-30 14:11:49,285 - INFO - (Admin) R << 8=FIX.4.3|9=56|35=0|34=54|49=SERVER|52=20241030-13:11:49.000|56=CLIENT|10=147|
2024-10-30 14:11:54,586 - INFO - (Admin) S >> 8=FIX.4.3|9=56|35=0|34=55|49=CLIENT|52=20241030-13:11:54.000|56=SERVER|10=144|
2024-10-30 14:12:19,583 - INFO - (Admin) R << 8=FIX.4.3|9=56|35=0|34=55|49=SERVER|52=20241030-13:12:19.000|56=CLIENT|10=146|
2024-10-30 14:12:24,833 - INFO - (Admin) S >> 8=FIX.4.3|9=56|35=0|34=56|49=CLIENT|52=20241030-13:12:24.000|56=SERVER|10=143|
2024-10-30 14:12:49,802 - INFO - (Admin) R << 8=FIX.4.3|9=56|35=0|34=56|49=SERVER|52=20241030-13:12:49.000|56=CLIENT|10=150|
2024-10-30 14:12:54,061 - INFO - (Admin) S >> 8=FIX.4.3|9=56|35=0|34=57|49=CLIENT|52=20241030-13:12:54.000|56=SERVER|10=147|
2024-10-30 14:13:19,061 - INFO - (Admin) R << 8=FIX.4.3|9=56|35=0|34=57|49=SERVER|52=20241030-13:13:19.000|56=CLIENT|10=149|
2024-10-30 14:13:24,353 - INFO - (Admin) S >> 8=FIX.4.3|9=56|35=0|34=58|49=CLIENT|52=20241030-13:13:24.000|56=SERVER|10=146|
2024-10-30 14:13:49,325 - INFO - (Admin) R << 8=FIX.4.3|9=56|35=0|34=58|49=SERVER|52=20241030-13:13:49.000|56=CLIENT|10=153|
2024-10-30 14:13:54,646 - INFO - (Admin) S >> 8=FIX.4.3|9=56|35=0|34=59|49=CLIENT|52=20241030-13:13:54.000|56=SERVER|10=150|
2024-10-30 14:14:19,605 - INFO - (Admin) R << 8=FIX.4.3|9=56|35=0|34=59|49=SERVER|52=20241030-13:14:19.000|56=CLIENT|10=152|
2024-10-30 14:14:24,934 - INFO - (Admin) S >> 8=FIX.4.3|9=56|35=0|34=60|49=CLIENT|52=20241030-13:14:24.000|56=SERVER|10=140|
2024-10-30 14:14:49,903 - INFO - (Admin) R << 8=FIX.4.3|9=56|35=0|34=60|49=SERVER|52=20241030-13:14:49.000|56=CLIENT|10=147|
2024-10-30 14:14:54,220 - INFO - (Admin) S >> 8=FIX.4.3|9=56|35=0|34=61|49=CLIENT|52=20241030-13:14:54.000|56=SERVER|10=144|
2024-10-30 14:15:19,176 - INFO - (Admin) R << 8=FIX.4.3|9=56|35=0|34=61|49=SERVER|52=20241030-13:15:19.000|56=CLIENT|10=146|
2024-10-30 14:15:24,511 - INFO - (Admin) S >> 8=FIX.4.3|9=56|35=0|34=62|49=CLIENT|52=20241030-13:15:24.000|56=SERVER|10=143|
2024-10-30 14:15:49,467 - INFO - (Admin) R << 8=FIX.4.3|9=56|35=0|34=62|49=SERVER|52=20241030-13:15:49.000|56=CLIENT|10=150|
2024-10-30 14:15:54,817 - INFO - (Admin) S >> 8=FIX.4.3|9=56|35=0|34=63|49=CLIENT|52=20241030-13:15:54.000|56=SERVER|10=147|
2024-10-30 14:16:19,767 - INFO - (Admin) R << 8=FIX.4.3|9=56|35=0|34=63|49=SERVER|52=20241030-13:16:19.000|56=CLIENT|10=149|
2024-10-30 14:16:24,100 - INFO - (Admin) S >> 8=FIX.4.3|9=56|35=0|34=64|49=CLIENT|52=20241030-13:16:24.000|56=SERVER|10=146|
2024-10-30 14:16:49,036 - INFO - (Admin) R << 8=FIX.4.3|9=56|35=0|34=64|49=SERVER|52=20241030-13:16:49.000|56=CLIENT|10=153|
2024-10-30 14:16:54,354 - INFO - (Admin) S >> 8=FIX.4.3|9=56|35=0|34=65|49=CLIENT|52=20241030-13:16:54.000|56=SERVER|10=150|
2024-10-30 14:17:19,292 - INFO - (Admin) R << 8=FIX.4.3|9=56|35=0|34=65|49=SERVER|52=20241030-13:17:19.000|56=CLIENT|10=152|
2024-10-30 14:17:24,609 - INFO - (Admin) S >> 8=FIX.4.3|9=56|35=0|34=66|49=CLIENT|52=20241030-13:17:24.000|56=SERVER|10=149|
2024-10-30 14:17:49,574 - INFO - (Admin) R << 8=FIX.4.3|9=56|35=0|34=66|49=SERVER|52=20241030-13:17:49.000|56=CLIENT|10=156|
2024-10-30 14:17:54,897 - INFO - (Admin) S >> 8=FIX.4.3|9=56|35=0|34=67|49=CLIENT|52=20241030-13:17:54.000|56=SERVER|10=153|
2024-10-30 14:18:19,856 - INFO - (Admin) R << 8=FIX.4.3|9=56|35=0|34=67|49=SERVER|52=20241030-13:18:19.000|56=CLIENT|10=155|
2024-10-30 14:18:24,158 - INFO - (Admin) S >> 8=FIX.4.3|9=56|35=0|34=68|49=CLIENT|52=20241030-13:18:24.000|56=SERVER|10=152|
2024-10-30 14:18:49,177 - INFO - (Admin) R << 8=FIX.4.3|9=56|35=0|34=68|49=SERVER|52=20241030-13:18:49.000|56=CLIENT|10=159|
2024-10-30 14:18:54,477 - INFO - (Admin) S >> 8=FIX.4.3|9=56|35=0|34=69|49=CLIENT|52=20241030-13:18:54.000|56=SERVER|10=156|
2024-10-30 14:19:19,481 - INFO - (Admin) R << 8=FIX.4.3|9=56|35=0|34=69|49=SERVER|52=20241030-13:19:19.000|56=CLIENT|10=158|
2024-10-30 14:19:24,797 - INFO - (Admin) S >> 8=FIX.4.3|9=56|35=0|34=70|49=CLIENT|52=20241030-13:19:24.000|56=SERVER|10=146|
2024-10-30 14:19:49,797 - INFO - (Admin) R << 8=FIX.4.3|9=56|35=0|34=70|49=SERVER|52=20241030-13:19:49.000|56=CLIENT|10=153|
2024-10-30 14:19:54,094 - INFO - (Admin) S >> 8=FIX.4.3|9=56|35=0|34=71|49=CLIENT|52=20241030-13:19:54.000|56=SERVER|10=150|
2024-10-30 14:20:19,100 - INFO - (Admin) R << 8=FIX.4.3|9=56|35=0|34=71|49=SERVER|52=20241030-13:20:19.000|56=CLIENT|10=143|
2024-10-30 14:20:24,438 - INFO - (Admin) S >> 8=FIX.4.3|9=56|35=0|34=72|49=CLIENT|52=20241030-13:20:24.000|56=SERVER|10=140|
2024-10-30 14:20:49,423 - INFO - (Admin) R << 8=FIX.4.3|9=56|35=0|34=72|49=SERVER|52=20241030-13:20:49.000|56=CLIENT|10=147|
2024-10-30 14:20:54,740 - INFO - (Admin) S >> 8=FIX.4.3|9=56|35=0|34=73|49=CLIENT|52=20241030-13:20:54.000|56=SERVER|10=144|
2024-10-30 14:21:19,767 - INFO - (Admin) R << 8=FIX.4.3|9=56|35=0|34=73|49=SERVER|52=20241030-13:21:19.000|56=CLIENT|10=146|
2024-10-30 14:21:24,044 - INFO - (Admin) S >> 8=FIX.4.3|9=56|35=0|34=74|49=CLIENT|52=20241030-13:21:24.000|56=SERVER|10=143|
2024-10-30 14:21:49,051 - INFO - (Admin) R << 8=FIX.4.3|9=56|35=0|34=74|49=SERVER|52=20241030-13:21:49.000|56=CLIENT|10=150|
2024-10-30 14:21:54,345 - INFO - (Admin) S >> 8=FIX.4.3|9=56|35=0|34=75|49=CLIENT|52=20241030-13:21:54.000|56=SERVER|10=147|
2024-10-30 14:22:19,334 - INFO - (Admin) R << 8=FIX.4.3|9=56|35=0|34=75|49=SERVER|52=20241030-13:22:19.000|56=CLIENT|10=149|
2024-10-30 14:22:24,635 - INFO - (Admin) S >> 8=FIX.4.3|9=56|35=0|34=76|49=CLIENT|52=20241030-13:22:24.000|56=SERVER|10=146|
2024-10-30 14:22:49,629 - INFO - (Admin) R << 8=FIX.4.3|9=56|35=0|34=76|49=SERVER|52=20241030-13:22:49.000|56=CLIENT|10=153|
2024-10-30 14:22:54,931 - INFO - (Admin) S >> 8=FIX.4.3|9=56|35=0|34=77|49=CLIENT|52=20241030-13:22:54.000|56=SERVER|10=150|
2024-10-30 14:23:19,947 - INFO - (Admin) R << 8=FIX.4.3|9=56|35=0|34=77|49=SERVER|52=20241030-13:23:19.000|56=CLIENT|10=152|
2024-10-30 14:23:24,215 - INFO - (Admin) S >> 8=FIX.4.3|9=56|35=0|34=78|49=CLIENT|52=20241030-13:23:24.000|56=SERVER|10=149|
2024-10-30 14:23:49,253 - INFO - (Admin) R << 8=FIX.4.3|9=56|35=0|34=78|49=SERVER|52=20241030-13:23:49.000|56=CLIENT|10=156|
2024-10-30 14:23:54,504 - INFO - (Admin) S >> 8=FIX.4.3|9=56|35=0|34=79|49=CLIENT|52=20241030-13:23:54.000|56=SERVER|10=153|
2024-10-30 14:24:19,551 - INFO - (Admin) R << 8=FIX.4.3|9=56|35=0|34=79|49=SERVER|52=20241030-13:24:19.000|56=CLIENT|10=155|
2024-10-30 14:24:24,790 - INFO - (Admin) S >> 8=FIX.4.3|9=56|35=0|34=80|49=CLIENT|52=20241030-13:24:24.000|56=SERVER|10=143|
2024-10-30 14:24:49,826 - INFO - (Admin) R << 8=FIX.4.3|9=56|35=0|34=80|49=SERVER|52=20241030-13:24:49.000|56=CLIENT|10=150|
2024-10-30 14:24:54,047 - INFO - (Admin) S >> 8=FIX.4.3|9=56|35=0|34=81|49=CLIENT|52=20241030-13:24:54.000|56=SERVER|10=147|
2024-10-30 14:25:19,100 - INFO - (Admin) R << 8=FIX.4.3|9=56|35=0|34=81|49=SERVER|52=20241030-13:25:19.000|56=CLIENT|10=149|
2024-10-30 14:25:24,342 - INFO - (Admin) S >> 8=FIX.4.3|9=56|35=0|34=82|49=CLIENT|52=20241030-13:25:24.000|56=SERVER|10=146|
2024-10-30 14:25:49,395 - INFO - (Admin) R << 8=FIX.4.3|9=56|35=0|34=82|49=SERVER|52=20241030-13:25:49.000|56=CLIENT|10=153|
2024-10-30 14:25:54,626 - INFO - (Admin) S >> 8=FIX.4.3|9=56|35=0|34=83|49=CLIENT|52=20241030-13:25:54.000|56=SERVER|10=150|
2024-10-30 14:26:19,691 - INFO - (Admin) R << 8=FIX.4.3|9=56|35=0|34=83|49=SERVER|52=20241030-13:26:19.000|56=CLIENT|10=152|
2024-10-30 14:26:24,919 - INFO - (Admin) S >> 8=FIX.4.3|9=56|35=0|34=84|49=CLIENT|52=20241030-13:26:24.000|56=SERVER|10=149|
